{
  "contractName": "MBNFT",
  "abi": [
    {
      "inputs": [
        {
          "internalType": "uint256",
          "name": "_startDate",
          "type": "uint256"
        },
        {
          "internalType": "uint256",
          "name": "_endDate",
          "type": "uint256"
        }
      ],
      "stateMutability": "nonpayable",
      "type": "constructor"
    },
    {
      "anonymous": false,
      "inputs": [
        {
          "indexed": true,
          "internalType": "address",
          "name": "owner",
          "type": "address"
        },
        {
          "indexed": true,
          "internalType": "address",
          "name": "approved",
          "type": "address"
        },
        {
          "indexed": true,
          "internalType": "uint256",
          "name": "tokenId",
          "type": "uint256"
        }
      ],
      "name": "Approval",
      "type": "event"
    },
    {
      "anonymous": false,
      "inputs": [
        {
          "indexed": true,
          "internalType": "address",
          "name": "owner",
          "type": "address"
        },
        {
          "indexed": true,
          "internalType": "address",
          "name": "operator",
          "type": "address"
        },
        {
          "indexed": false,
          "internalType": "bool",
          "name": "approved",
          "type": "bool"
        }
      ],
      "name": "ApprovalForAll",
      "type": "event"
    },
    {
      "anonymous": false,
      "inputs": [
        {
          "indexed": false,
          "internalType": "uint256",
          "name": "_fromTokenId",
          "type": "uint256"
        },
        {
          "indexed": false,
          "internalType": "uint256",
          "name": "_toTokenId",
          "type": "uint256"
        }
      ],
      "name": "BatchMetadataUpdate",
      "type": "event"
    },
    {
      "anonymous": false,
      "inputs": [
        {
          "indexed": false,
          "internalType": "uint256",
          "name": "_tokenId",
          "type": "uint256"
        }
      ],
      "name": "MetadataUpdate",
      "type": "event"
    },
    {
      "anonymous": false,
      "inputs": [
        {
          "indexed": true,
          "internalType": "address",
          "name": "from",
          "type": "address"
        },
        {
          "indexed": true,
          "internalType": "address",
          "name": "to",
          "type": "address"
        },
        {
          "indexed": true,
          "internalType": "uint256",
          "name": "tokenId",
          "type": "uint256"
        }
      ],
      "name": "Transfer",
      "type": "event"
    },
    {
      "inputs": [],
      "name": "_tokenIds",
      "outputs": [
        {
          "internalType": "uint256",
          "name": "_value",
          "type": "uint256"
        }
      ],
      "stateMutability": "view",
      "type": "function",
      "constant": true
    },
    {
      "inputs": [
        {
          "internalType": "uint256",
          "name": "",
          "type": "uint256"
        }
      ],
      "name": "_tokenURIs",
      "outputs": [
        {
          "internalType": "string",
          "name": "",
          "type": "string"
        }
      ],
      "stateMutability": "view",
      "type": "function",
      "constant": true
    },
    {
      "inputs": [
        {
          "internalType": "address",
          "name": "to",
          "type": "address"
        },
        {
          "internalType": "uint256",
          "name": "tokenId",
          "type": "uint256"
        }
      ],
      "name": "approve",
      "outputs": [],
      "stateMutability": "nonpayable",
      "type": "function"
    },
    {
      "inputs": [
        {
          "internalType": "address",
          "name": "owner",
          "type": "address"
        }
      ],
      "name": "balanceOf",
      "outputs": [
        {
          "internalType": "uint256",
          "name": "",
          "type": "uint256"
        }
      ],
      "stateMutability": "view",
      "type": "function",
      "constant": true
    },
    {
      "inputs": [],
      "name": "endDate",
      "outputs": [
        {
          "internalType": "uint256",
          "name": "",
          "type": "uint256"
        }
      ],
      "stateMutability": "view",
      "type": "function",
      "constant": true
    },
    {
      "inputs": [
        {
          "internalType": "uint256",
          "name": "tokenId",
          "type": "uint256"
        }
      ],
      "name": "getApproved",
      "outputs": [
        {
          "internalType": "address",
          "name": "",
          "type": "address"
        }
      ],
      "stateMutability": "view",
      "type": "function",
      "constant": true
    },
    {
      "inputs": [
        {
          "internalType": "address",
          "name": "owner",
          "type": "address"
        },
        {
          "internalType": "address",
          "name": "operator",
          "type": "address"
        }
      ],
      "name": "isApprovedForAll",
      "outputs": [
        {
          "internalType": "bool",
          "name": "",
          "type": "bool"
        }
      ],
      "stateMutability": "view",
      "type": "function",
      "constant": true
    },
    {
      "inputs": [],
      "name": "name",
      "outputs": [
        {
          "internalType": "string",
          "name": "",
          "type": "string"
        }
      ],
      "stateMutability": "view",
      "type": "function",
      "constant": true
    },
    {
      "inputs": [
        {
          "internalType": "uint256",
          "name": "tokenId",
          "type": "uint256"
        }
      ],
      "name": "ownerOf",
      "outputs": [
        {
          "internalType": "address",
          "name": "",
          "type": "address"
        }
      ],
      "stateMutability": "view",
      "type": "function",
      "constant": true
    },
    {
      "inputs": [
        {
          "internalType": "address",
          "name": "",
          "type": "address"
        }
      ],
      "name": "receipts",
      "outputs": [
        {
          "internalType": "string",
          "name": "",
          "type": "string"
        }
      ],
      "stateMutability": "view",
      "type": "function",
      "constant": true
    },
    {
      "inputs": [
        {
          "internalType": "address",
          "name": "from",
          "type": "address"
        },
        {
          "internalType": "address",
          "name": "to",
          "type": "address"
        },
        {
          "internalType": "uint256",
          "name": "tokenId",
          "type": "uint256"
        }
      ],
      "name": "safeTransferFrom",
      "outputs": [],
      "stateMutability": "nonpayable",
      "type": "function"
    },
    {
      "inputs": [
        {
          "internalType": "address",
          "name": "from",
          "type": "address"
        },
        {
          "internalType": "address",
          "name": "to",
          "type": "address"
        },
        {
          "internalType": "uint256",
          "name": "tokenId",
          "type": "uint256"
        },
        {
          "internalType": "bytes",
          "name": "data",
          "type": "bytes"
        }
      ],
      "name": "safeTransferFrom",
      "outputs": [],
      "stateMutability": "nonpayable",
      "type": "function"
    },
    {
      "inputs": [
        {
          "internalType": "address",
          "name": "operator",
          "type": "address"
        },
        {
          "internalType": "bool",
          "name": "approved",
          "type": "bool"
        }
      ],
      "name": "setApprovalForAll",
      "outputs": [],
      "stateMutability": "nonpayable",
      "type": "function"
    },
    {
      "inputs": [],
      "name": "startDate",
      "outputs": [
        {
          "internalType": "uint256",
          "name": "",
          "type": "uint256"
        }
      ],
      "stateMutability": "view",
      "type": "function",
      "constant": true
    },
    {
      "inputs": [
        {
          "internalType": "bytes4",
          "name": "interfaceId",
          "type": "bytes4"
        }
      ],
      "name": "supportsInterface",
      "outputs": [
        {
          "internalType": "bool",
          "name": "",
          "type": "bool"
        }
      ],
      "stateMutability": "view",
      "type": "function",
      "constant": true
    },
    {
      "inputs": [],
      "name": "symbol",
      "outputs": [
        {
          "internalType": "string",
          "name": "",
          "type": "string"
        }
      ],
      "stateMutability": "view",
      "type": "function",
      "constant": true
    },
    {
      "inputs": [
        {
          "internalType": "address",
          "name": "from",
          "type": "address"
        },
        {
          "internalType": "address",
          "name": "to",
          "type": "address"
        },
        {
          "internalType": "uint256",
          "name": "tokenId",
          "type": "uint256"
        }
      ],
      "name": "transferFrom",
      "outputs": [],
      "stateMutability": "nonpayable",
      "type": "function"
    },
    {
      "inputs": [
        {
          "internalType": "address",
          "name": "to",
          "type": "address"
        },
        {
          "internalType": "string",
          "name": "tokenURI",
          "type": "string"
        },
        {
          "internalType": "string",
          "name": "receipt",
          "type": "string"
        }
      ],
      "name": "mintNFT",
      "outputs": [
        {
          "internalType": "uint256",
          "name": "",
          "type": "uint256"
        }
      ],
      "stateMutability": "nonpayable",
      "type": "function"
    },
    {
      "inputs": [
        {
          "internalType": "uint256",
          "name": "tokenId",
          "type": "uint256"
        }
      ],
      "name": "tokenURI",
      "outputs": [
        {
          "internalType": "string",
          "name": "",
          "type": "string"
        }
      ],
      "stateMutability": "view",
      "type": "function",
      "constant": true
    }
  ],
  "bytecode": "0x60806040523480156200001157600080fd5b5060405162002bd838038062002bd88339818101604052810190620000379190620001dd565b6040518060400160405280601181526020017f4d657263656465732d42656e7a204e46540000000000000000000000000000008152506040518060400160405280600681526020017f4d422d4e465400000000000000000000000000000000000000000000000000008152508160009080519060200190620000bb929190620000ed565b508060019080519060200190620000d4929190620000ed565b5050508160078190555080600881905550505062000288565b828054620000fb9062000253565b90600052602060002090601f0160209004810192826200011f57600085556200016b565b82601f106200013a57805160ff19168380011785556200016b565b828001600101855582156200016b579182015b828111156200016a5782518255916020019190600101906200014d565b5b5090506200017a91906200017e565b5090565b5b80821115620001995760008160009055506001016200017f565b5090565b600080fd5b6000819050919050565b620001b781620001a2565b8114620001c357600080fd5b50565b600081519050620001d781620001ac565b92915050565b60008060408385031215620001f757620001f66200019d565b5b60006200020785828601620001c6565b92505060206200021a85828601620001c6565b9150509250929050565b7f4e487b7100000000000000000000000000000000000000000000000000000000600052602260045260246000fd5b600060028204905060018216806200026c57607f821691505b60208210810362000282576200028162000224565b5b50919050565b61294080620002986000396000f3fe608060405234801561001057600080fd5b50600436106101215760003560e01c80636352211e116100ad578063aa46a40011610071578063aa46a40014610340578063b88d4fde1461035e578063c24a0f8b1461037a578063c87b56dd14610398578063e985e9c5146103c857610121565b80636352211e1461027657806370a08231146102a657806395d89b41146102d6578063a22cb465146102f4578063a3ee38ae1461031057610121565b80630b97bc86116100f45780630b97bc86146101c05780630bb78ec1146101de57806323b872dd1461020e57806342842e0e1461022a5780634de4797b1461024657610121565b806301ffc9a71461012657806306fdde0314610156578063081812fc14610174578063095ea7b3146101a4575b600080fd5b610140600480360381019061013b9190611abe565b6103f8565b60405161014d9190611b06565b60405180910390f35b61015e610459565b60405161016b9190611bba565b60405180910390f35b61018e60048036038101906101899190611c12565b6104eb565b60405161019b9190611c80565b60405180910390f35b6101be60048036038101906101b99190611cc7565b610531565b005b6101c8610648565b6040516101d59190611d16565b60405180910390f35b6101f860048036038101906101f39190611c12565b61064e565b6040516102059190611bba565b60405180910390f35b61022860048036038101906102239190611d31565b6106ee565b005b610244600480360381019061023f9190611d31565b61074e565b005b610260600480360381019061025b9190611d84565b61076e565b60405161026d9190611bba565b60405180910390f35b610290600480360381019061028b9190611c12565b61080e565b60405161029d9190611c80565b60405180910390f35b6102c060048036038101906102bb9190611d84565b610894565b6040516102cd9190611d16565b60405180910390f35b6102de61094b565b6040516102eb9190611bba565b60405180910390f35b61030e60048036038101906103099190611ddd565b6109dd565b005b61032a60048036038101906103259190611f52565b6109f3565b6040516103379190611d16565b60405180910390f35b610348610b3a565b6040516103559190611d16565b60405180910390f35b6103786004803603810190610373919061207e565b610b46565b005b610382610ba8565b60405161038f9190611d16565b60405180910390f35b6103b260048036038101906103ad9190611c12565b610bae565b6040516103bf9190611bba565b60405180910390f35b6103e260048036038101906103dd9190612101565b610c53565b6040516103ef9190611b06565b60405180910390f35b6000634906490660e01b7bffffffffffffffffffffffffffffffffffffffffffffffffffffffff1916827bffffffffffffffffffffffffffffffffffffffffffffffffffffffff19161480610452575061045182610ce7565b5b9050919050565b60606000805461046890612170565b80601f016020809104026020016040519081016040528092919081815260200182805461049490612170565b80156104e15780601f106104b6576101008083540402835291602001916104e1565b820191906000526020600020905b8154815290600101906020018083116104c457829003601f168201915b5050505050905090565b60006104f682610dc9565b6004600083815260200190815260200160002060009054906101000a900473ffffffffffffffffffffffffffffffffffffffff169050919050565b600061053c8261080e565b90508073ffffffffffffffffffffffffffffffffffffffff168373ffffffffffffffffffffffffffffffffffffffff16036105ac576040517f08c379a00000000000000000000000000000000000000000000000000000000081526004016105a390612213565b60405180910390fd5b8073ffffffffffffffffffffffffffffffffffffffff166105cb610e14565b73ffffffffffffffffffffffffffffffffffffffff1614806105fa57506105f9816105f4610e14565b610c53565b5b610639576040517f08c379a0000000000000000000000000000000000000000000000000000000008152600401610630906122a5565b60405180910390fd5b6106438383610e1c565b505050565b60075481565b600b602052806000526040600020600091509050805461066d90612170565b80601f016020809104026020016040519081016040528092919081815260200182805461069990612170565b80156106e65780601f106106bb576101008083540402835291602001916106e6565b820191906000526020600020905b8154815290600101906020018083116106c957829003601f168201915b505050505081565b6106ff6106f9610e14565b82610ed5565b61073e576040517f08c379a000000000000000000000000000000000000000000000000000000000815260040161073590612337565b60405180910390fd5b610749838383610f6a565b505050565b61076983838360405180602001604052806000815250610b46565b505050565b600a602052806000526040600020600091509050805461078d90612170565b80601f01602080910402602001604051908101604052809291908181526020018280546107b990612170565b80156108065780601f106107db57610100808354040283529160200191610806565b820191906000526020600020905b8154815290600101906020018083116107e957829003601f168201915b505050505081565b60008061081a83611263565b9050600073ffffffffffffffffffffffffffffffffffffffff168173ffffffffffffffffffffffffffffffffffffffff160361088b576040517f08c379a0000000000000000000000000000000000000000000000000000000008152600401610882906123a3565b60405180910390fd5b80915050919050565b60008073ffffffffffffffffffffffffffffffffffffffff168273ffffffffffffffffffffffffffffffffffffffff1603610904576040517f08c379a00000000000000000000000000000000000000000000000000000000081526004016108fb90612435565b60405180910390fd5b600360008373ffffffffffffffffffffffffffffffffffffffff1673ffffffffffffffffffffffffffffffffffffffff168152602001908152602001600020549050919050565b60606001805461095a90612170565b80601f016020809104026020016040519081016040528092919081815260200182805461098690612170565b80156109d35780601f106109a8576101008083540402835291602001916109d3565b820191906000526020600020905b8154815290600101906020018083116109b657829003601f168201915b5050505050905090565b6109ef6109e8610e14565b83836112a0565b5050565b6000806109ff85610894565b14610a3f576040517f08c379a0000000000000000000000000000000000000000000000000000000008152600401610a36906124a1565b60405180910390fd5b600560096000015410610a87576040517f08c379a0000000000000000000000000000000000000000000000000000000008152600401610a7e9061250d565b60405180910390fd5b610a91600961140c565b6000610a9d6009611422565b905083600b60008381526020019081526020016000209080519060200190610ac69291906119af565b50610ad18582611430565b610adb818561144e565b82600a60008773ffffffffffffffffffffffffffffffffffffffff1673ffffffffffffffffffffffffffffffffffffffff1681526020019081526020016000209080519060200190610b2e9291906119af565b50809150509392505050565b60098060000154905081565b610b57610b51610e14565b83610ed5565b610b96576040517f08c379a0000000000000000000000000000000000000000000000000000000008152600401610b8d90612337565b60405180910390fd5b610ba28484848461147a565b50505050565b60085481565b6060600b60008381526020019081526020016000208054610bce90612170565b80601f0160208091040260200160405190810160405280929190818152602001828054610bfa90612170565b8015610c475780601f10610c1c57610100808354040283529160200191610c47565b820191906000526020600020905b815481529060010190602001808311610c2a57829003601f168201915b50505050509050919050565b6000600560008473ffffffffffffffffffffffffffffffffffffffff1673ffffffffffffffffffffffffffffffffffffffff16815260200190815260200160002060008373ffffffffffffffffffffffffffffffffffffffff1673ffffffffffffffffffffffffffffffffffffffff16815260200190815260200160002060009054906101000a900460ff16905092915050565b60007f80ac58cd000000000000000000000000000000000000000000000000000000007bffffffffffffffffffffffffffffffffffffffffffffffffffffffff1916827bffffffffffffffffffffffffffffffffffffffffffffffffffffffff19161480610db257507f5b5e139f000000000000000000000000000000000000000000000000000000007bffffffffffffffffffffffffffffffffffffffffffffffffffffffff1916827bffffffffffffffffffffffffffffffffffffffffffffffffffffffff1916145b80610dc25750610dc1826114d6565b5b9050919050565b610dd281611540565b610e11576040517f08c379a0000000000000000000000000000000000000000000000000000000008152600401610e08906123a3565b60405180910390fd5b50565b600033905090565b816004600083815260200190815260200160002060006101000a81548173ffffffffffffffffffffffffffffffffffffffff021916908373ffffffffffffffffffffffffffffffffffffffff160217905550808273ffffffffffffffffffffffffffffffffffffffff16610e8f8361080e565b73ffffffffffffffffffffffffffffffffffffffff167f8c5be1e5ebec7d5bd14f71427d1e84f3dd0314c0f7b2291e5b200ac8c7c3b92560405160405180910390a45050565b600080610ee18361080e565b90508073ffffffffffffffffffffffffffffffffffffffff168473ffffffffffffffffffffffffffffffffffffffff161480610f235750610f228185610c53565b5b80610f6157508373ffffffffffffffffffffffffffffffffffffffff16610f49846104eb565b73ffffffffffffffffffffffffffffffffffffffff16145b91505092915050565b8273ffffffffffffffffffffffffffffffffffffffff16610f8a8261080e565b73ffffffffffffffffffffffffffffffffffffffff1614610fe0576040517f08c379a0000000000000000000000000000000000000000000000000000000008152600401610fd79061259f565b60405180910390fd5b600073ffffffffffffffffffffffffffffffffffffffff168273ffffffffffffffffffffffffffffffffffffffff160361104f576040517f08c379a000000000000000000000000000000000000000000000000000000000815260040161104690612631565b60405180910390fd5b61105c8383836001611581565b8273ffffffffffffffffffffffffffffffffffffffff1661107c8261080e565b73ffffffffffffffffffffffffffffffffffffffff16146110d2576040517f08c379a00000000000000000000000000000000000000000000000000000000081526004016110c99061259f565b60405180910390fd5b6004600082815260200190815260200160002060006101000a81549073ffffffffffffffffffffffffffffffffffffffff02191690556001600360008573ffffffffffffffffffffffffffffffffffffffff1673ffffffffffffffffffffffffffffffffffffffff168152602001908152602001600020600082825403925050819055506001600360008473ffffffffffffffffffffffffffffffffffffffff1673ffffffffffffffffffffffffffffffffffffffff16815260200190815260200160002060008282540192505081905550816002600083815260200190815260200160002060006101000a81548173ffffffffffffffffffffffffffffffffffffffff021916908373ffffffffffffffffffffffffffffffffffffffff160217905550808273ffffffffffffffffffffffffffffffffffffffff168473ffffffffffffffffffffffffffffffffffffffff167fddf252ad1be2c89b69c2b068fc378daa952ba7f163c4a11628f55a4df523b3ef60405160405180910390a461125e8383836001611587565b505050565b60006002600083815260200190815260200160002060009054906101000a900473ffffffffffffffffffffffffffffffffffffffff169050919050565b8173ffffffffffffffffffffffffffffffffffffffff168373ffffffffffffffffffffffffffffffffffffffff160361130e576040517f08c379a00000000000000000000000000000000000000000000000000000000081526004016113059061269d565b60405180910390fd5b80600560008573ffffffffffffffffffffffffffffffffffffffff1673ffffffffffffffffffffffffffffffffffffffff16815260200190815260200160002060008473ffffffffffffffffffffffffffffffffffffffff1673ffffffffffffffffffffffffffffffffffffffff16815260200190815260200160002060006101000a81548160ff0219169083151502179055508173ffffffffffffffffffffffffffffffffffffffff168373ffffffffffffffffffffffffffffffffffffffff167f17307eab39ab6107e8899845ad3d59bd9653f200f220920489ca2b5937696c31836040516113ff9190611b06565b60405180910390a3505050565b6001816000016000828254019250508190555050565b600081600001549050919050565b61144a82826040518060200160405280600081525061158d565b5050565b80600b600084815260200190815260200160002090805190602001906114759291906119af565b505050565b611485848484610f6a565b611491848484846115e8565b6114d0576040517f08c379a00000000000000000000000000000000000000000000000000000000081526004016114c79061272f565b60405180910390fd5b50505050565b60007f01ffc9a7000000000000000000000000000000000000000000000000000000007bffffffffffffffffffffffffffffffffffffffffffffffffffffffff1916827bffffffffffffffffffffffffffffffffffffffffffffffffffffffff1916149050919050565b60008073ffffffffffffffffffffffffffffffffffffffff1661156283611263565b73ffffffffffffffffffffffffffffffffffffffff1614159050919050565b50505050565b50505050565b611597838361176f565b6115a460008484846115e8565b6115e3576040517f08c379a00000000000000000000000000000000000000000000000000000000081526004016115da9061272f565b60405180910390fd5b505050565b60006116098473ffffffffffffffffffffffffffffffffffffffff1661198c565b15611762578373ffffffffffffffffffffffffffffffffffffffff1663150b7a02611632610e14565b8786866040518563ffffffff1660e01b815260040161165494939291906127a4565b6020604051808303816000875af192505050801561169057506040513d601f19601f8201168201806040525081019061168d9190612805565b60015b611712573d80600081146116c0576040519150601f19603f3d011682016040523d82523d6000602084013e6116c5565b606091505b50600081510361170a576040517f08c379a00000000000000000000000000000000000000000000000000000000081526004016117019061272f565b60405180910390fd5b805181602001fd5b63150b7a0260e01b7bffffffffffffffffffffffffffffffffffffffffffffffffffffffff1916817bffffffffffffffffffffffffffffffffffffffffffffffffffffffff191614915050611767565b600190505b949350505050565b600073ffffffffffffffffffffffffffffffffffffffff168273ffffffffffffffffffffffffffffffffffffffff16036117de576040517f08c379a00000000000000000000000000000000000000000000000000000000081526004016117d59061287e565b60405180910390fd5b6117e781611540565b15611827576040517f08c379a000000000000000000000000000000000000000000000000000000000815260040161181e906128ea565b60405180910390fd5b611835600083836001611581565b61183e81611540565b1561187e576040517f08c379a0000000000000000000000000000000000000000000000000000000008152600401611875906128ea565b60405180910390fd5b6001600360008473ffffffffffffffffffffffffffffffffffffffff1673ffffffffffffffffffffffffffffffffffffffff16815260200190815260200160002060008282540192505081905550816002600083815260200190815260200160002060006101000a81548173ffffffffffffffffffffffffffffffffffffffff021916908373ffffffffffffffffffffffffffffffffffffffff160217905550808273ffffffffffffffffffffffffffffffffffffffff16600073ffffffffffffffffffffffffffffffffffffffff167fddf252ad1be2c89b69c2b068fc378daa952ba7f163c4a11628f55a4df523b3ef60405160405180910390a4611988600083836001611587565b5050565b6000808273ffffffffffffffffffffffffffffffffffffffff163b119050919050565b8280546119bb90612170565b90600052602060002090601f0160209004810192826119dd5760008555611a24565b82601f106119f657805160ff1916838001178555611a24565b82800160010185558215611a24579182015b82811115611a23578251825591602001919060010190611a08565b5b509050611a319190611a35565b5090565b5b80821115611a4e576000816000905550600101611a36565b5090565b6000604051905090565b600080fd5b600080fd5b60007fffffffff0000000000000000000000000000000000000000000000000000000082169050919050565b611a9b81611a66565b8114611aa657600080fd5b50565b600081359050611ab881611a92565b92915050565b600060208284031215611ad457611ad3611a5c565b5b6000611ae284828501611aa9565b91505092915050565b60008115159050919050565b611b0081611aeb565b82525050565b6000602082019050611b1b6000830184611af7565b92915050565b600081519050919050565b600082825260208201905092915050565b60005b83811015611b5b578082015181840152602081019050611b40565b83811115611b6a576000848401525b50505050565b6000601f19601f8301169050919050565b6000611b8c82611b21565b611b968185611b2c565b9350611ba6818560208601611b3d565b611baf81611b70565b840191505092915050565b60006020820190508181036000830152611bd48184611b81565b905092915050565b6000819050919050565b611bef81611bdc565b8114611bfa57600080fd5b50565b600081359050611c0c81611be6565b92915050565b600060208284031215611c2857611c27611a5c565b5b6000611c3684828501611bfd565b91505092915050565b600073ffffffffffffffffffffffffffffffffffffffff82169050919050565b6000611c6a82611c3f565b9050919050565b611c7a81611c5f565b82525050565b6000602082019050611c956000830184611c71565b92915050565b611ca481611c5f565b8114611caf57600080fd5b50565b600081359050611cc181611c9b565b92915050565b60008060408385031215611cde57611cdd611a5c565b5b6000611cec85828601611cb2565b9250506020611cfd85828601611bfd565b9150509250929050565b611d1081611bdc565b82525050565b6000602082019050611d2b6000830184611d07565b92915050565b600080600060608486031215611d4a57611d49611a5c565b5b6000611d5886828701611cb2565b9350506020611d6986828701611cb2565b9250506040611d7a86828701611bfd565b9150509250925092565b600060208284031215611d9a57611d99611a5c565b5b6000611da884828501611cb2565b91505092915050565b611dba81611aeb565b8114611dc557600080fd5b50565b600081359050611dd781611db1565b92915050565b60008060408385031215611df457611df3611a5c565b5b6000611e0285828601611cb2565b9250506020611e1385828601611dc8565b9150509250929050565b600080fd5b600080fd5b7f4e487b7100000000000000000000000000000000000000000000000000000000600052604160045260246000fd5b611e5f82611b70565b810181811067ffffffffffffffff82111715611e7e57611e7d611e27565b5b80604052505050565b6000611e91611a52565b9050611e9d8282611e56565b919050565b600067ffffffffffffffff821115611ebd57611ebc611e27565b5b611ec682611b70565b9050602081019050919050565b82818337600083830152505050565b6000611ef5611ef084611ea2565b611e87565b905082815260208101848484011115611f1157611f10611e22565b5b611f1c848285611ed3565b509392505050565b600082601f830112611f3957611f38611e1d565b5b8135611f49848260208601611ee2565b91505092915050565b600080600060608486031215611f6b57611f6a611a5c565b5b6000611f7986828701611cb2565b935050602084013567ffffffffffffffff811115611f9a57611f99611a61565b5b611fa686828701611f24565b925050604084013567ffffffffffffffff811115611fc757611fc6611a61565b5b611fd386828701611f24565b9150509250925092565b600067ffffffffffffffff821115611ff857611ff7611e27565b5b61200182611b70565b9050602081019050919050565b600061202161201c84611fdd565b611e87565b90508281526020810184848401111561203d5761203c611e22565b5b612048848285611ed3565b509392505050565b600082601f83011261206557612064611e1d565b5b813561207584826020860161200e565b91505092915050565b6000806000806080858703121561209857612097611a5c565b5b60006120a687828801611cb2565b94505060206120b787828801611cb2565b93505060406120c887828801611bfd565b925050606085013567ffffffffffffffff8111156120e9576120e8611a61565b5b6120f587828801612050565b91505092959194509250565b6000806040838503121561211857612117611a5c565b5b600061212685828601611cb2565b925050602061213785828601611cb2565b9150509250929050565b7f4e487b7100000000000000000000000000000000000000000000000000000000600052602260045260246000fd5b6000600282049050600182168061218857607f821691505b60208210810361219b5761219a612141565b5b50919050565b7f4552433732313a20617070726f76616c20746f2063757272656e74206f776e6560008201527f7200000000000000000000000000000000000000000000000000000000000000602082015250565b60006121fd602183611b2c565b9150612208826121a1565b604082019050919050565b6000602082019050818103600083015261222c816121f0565b9050919050565b7f4552433732313a20617070726f76652063616c6c6572206973206e6f7420746f60008201527f6b656e206f776e6572206f7220617070726f76656420666f7220616c6c000000602082015250565b600061228f603d83611b2c565b915061229a82612233565b604082019050919050565b600060208201905081810360008301526122be81612282565b9050919050565b7f4552433732313a2063616c6c6572206973206e6f7420746f6b656e206f776e6560008201527f72206f7220617070726f76656400000000000000000000000000000000000000602082015250565b6000612321602d83611b2c565b915061232c826122c5565b604082019050919050565b6000602082019050818103600083015261235081612314565b9050919050565b7f4552433732313a20696e76616c696420746f6b656e2049440000000000000000600082015250565b600061238d601883611b2c565b915061239882612357565b602082019050919050565b600060208201905081810360008301526123bc81612380565b9050919050565b7f4552433732313a2061646472657373207a65726f206973206e6f74206120766160008201527f6c6964206f776e65720000000000000000000000000000000000000000000000602082015250565b600061241f602983611b2c565b915061242a826123c3565b604082019050919050565b6000602082019050818103600083015261244e81612412565b9050919050565b7f416c7265616479204d696e740000000000000000000000000000000000000000600082015250565b600061248b600c83611b2c565b915061249682612455565b602082019050919050565b600060208201905081810360008301526124ba8161247e565b9050919050565b7f457863656564204c696d69740000000000000000000000000000000000000000600082015250565b60006124f7600c83611b2c565b9150612502826124c1565b602082019050919050565b60006020820190508181036000830152612526816124ea565b9050919050565b7f4552433732313a207472616e736665722066726f6d20696e636f72726563742060008201527f6f776e6572000000000000000000000000000000000000000000000000000000602082015250565b6000612589602583611b2c565b91506125948261252d565b604082019050919050565b600060208201905081810360008301526125b88161257c565b9050919050565b7f4552433732313a207472616e7366657220746f20746865207a65726f2061646460008201527f7265737300000000000000000000000000000000000000000000000000000000602082015250565b600061261b602483611b2c565b9150612626826125bf565b604082019050919050565b6000602082019050818103600083015261264a8161260e565b9050919050565b7f4552433732313a20617070726f766520746f2063616c6c657200000000000000600082015250565b6000612687601983611b2c565b915061269282612651565b602082019050919050565b600060208201905081810360008301526126b68161267a565b9050919050565b7f4552433732313a207472616e7366657220746f206e6f6e20455243373231526560008201527f63656976657220696d706c656d656e7465720000000000000000000000000000602082015250565b6000612719603283611b2c565b9150612724826126bd565b604082019050919050565b600060208201905081810360008301526127488161270c565b9050919050565b600081519050919050565b600082825260208201905092915050565b60006127768261274f565b612780818561275a565b9350612790818560208601611b3d565b61279981611b70565b840191505092915050565b60006080820190506127b96000830187611c71565b6127c66020830186611c71565b6127d36040830185611d07565b81810360608301526127e5818461276b565b905095945050505050565b6000815190506127ff81611a92565b92915050565b60006020828403121561281b5761281a611a5c565b5b6000612829848285016127f0565b91505092915050565b7f4552433732313a206d696e7420746f20746865207a65726f2061646472657373600082015250565b6000612868602083611b2c565b915061287382612832565b602082019050919050565b600060208201905081810360008301526128978161285b565b9050919050565b7f4552433732313a20746f6b656e20616c7265616479206d696e74656400000000600082015250565b60006128d4601c83611b2c565b91506128df8261289e565b602082019050919050565b60006020820190508181036000830152612903816128c7565b905091905056fea2646970667358221220b87ff101e1fbfb5309f5517993e0b490500f5c4ba9927c9794a61a811fed7dbd64736f6c634300080d0033",
  "immutableReferences": {},
  "source": "// SPDX-License-Identifier: GPL-3.0\n\npragma solidity >=0.7.0 <0.9.0;\n\nimport \"@openzeppelin/contracts/token/ERC721/extensions/ERC721URIStorage.sol\";\nimport \"@openzeppelin/contracts/utils/Counters.sol\";\n\n\ncontract MBNFT is ERC721URIStorage {\n    uint public startDate;\n    uint public endDate;\n\n    using Counters for Counters.Counter;\n    Counters.Counter public _tokenIds;\n\n    mapping(address => string) public  receipts;\n    mapping(uint256 => string) public _tokenURIs;\n\n    constructor(uint256 _startDate, uint256 _endDate) ERC721(\"Mercedes-Benz NFT\", \"MB-NFT\") {\n        startDate = _startDate;\n        endDate = _endDate;       \n    }\n\n    function mintNFT(address to,  string memory tokenURI,   string memory receipt ) public returns (uint256) {\n         \n        \n        // require(block.timestamp >= startDate && block.timestamp <= endDate, \"Expired time\");\n        require(balanceOf(to) == 0, \"Already Mint\");\n        require(_tokenIds._value < 5, \"Exceed Limit\");\n        _tokenIds.increment();\n        \n        uint256 newItemId = _tokenIds.current();\n        _tokenURIs[newItemId]= tokenURI;\n        _safeMint(to, newItemId);\n        setTokenUri(newItemId, tokenURI);\n\n        receipts[to] = receipt;\n\n        return newItemId;\n    }\n\n    /// @notice this function is private, it only can call via mint Function \n    function setTokenUri(uint256 tokenId, string memory tokenURI) private {\n\n        _tokenURIs[tokenId] = tokenURI;\n    }\n\n    /// @notice function to help us to paginate, filter data when contract have thousand or millions of NFTs. \n    function tokenURI(\n        uint256 tokenId\n    ) public view virtual override returns (string memory) {\n        return _tokenURIs[tokenId];\n    }\n\n}\n",
  "sourcePath": "/home/ha/Downloads/programs/30-10/next-nft/contracts/MBNFT.sol",
  "compiler": {
    "name": "solc",
    "version": "0.8.13+commit.abaa5c0e.Emscripten.clang"
  },
  "schemaVersion": "3.4.16",
  "updatedAt": "2023-10-30T02:07:23.393Z",
  "networkType": "ethereum",
  "devdoc": {
    "kind": "dev",
    "methods": {
      "approve(address,uint256)": {
        "details": "See {IERC721-approve}."
      },
      "balanceOf(address)": {
        "details": "See {IERC721-balanceOf}."
      },
      "getApproved(uint256)": {
        "details": "See {IERC721-getApproved}."
      },
      "isApprovedForAll(address,address)": {
        "details": "See {IERC721-isApprovedForAll}."
      },
      "name()": {
        "details": "See {IERC721Metadata-name}."
      },
      "ownerOf(uint256)": {
        "details": "See {IERC721-ownerOf}."
      },
      "safeTransferFrom(address,address,uint256)": {
        "details": "See {IERC721-safeTransferFrom}."
      },
      "safeTransferFrom(address,address,uint256,bytes)": {
        "details": "See {IERC721-safeTransferFrom}."
      },
      "setApprovalForAll(address,bool)": {
        "details": "See {IERC721-setApprovalForAll}."
      },
      "supportsInterface(bytes4)": {
        "details": "See {IERC165-supportsInterface}"
      },
      "symbol()": {
        "details": "See {IERC721Metadata-symbol}."
      },
      "transferFrom(address,address,uint256)": {
        "details": "See {IERC721-transferFrom}."
      }
    },
    "version": 1
  },
  "userdoc": {
    "kind": "user",
    "methods": {
      "tokenURI(uint256)": {
        "notice": "function to help us to paginate, filter data when contract have thousand or millions of NFTs. "
      }
    },
    "version": 1
  }
}